{
  "_format": "hh-sol-artifact-1",
  "contractName": "Artist",
  "sourceName": "contracts/Artist.sol",
  "abi": [
    {
      "anonymous": false,
      "inputs": [
        {
          "indexed": true,
          "internalType": "address",
          "name": "owner",
          "type": "address"
        },
        {
          "indexed": true,
          "internalType": "address",
          "name": "approved",
          "type": "address"
        },
        {
          "indexed": true,
          "internalType": "uint256",
          "name": "tokenId",
          "type": "uint256"
        }
      ],
      "name": "Approval",
      "type": "event"
    },
    {
      "anonymous": false,
      "inputs": [
        {
          "indexed": true,
          "internalType": "address",
          "name": "owner",
          "type": "address"
        },
        {
          "indexed": true,
          "internalType": "address",
          "name": "operator",
          "type": "address"
        },
        {
          "indexed": false,
          "internalType": "bool",
          "name": "approved",
          "type": "bool"
        }
      ],
      "name": "ApprovalForAll",
      "type": "event"
    },
    {
      "anonymous": false,
      "inputs": [
        {
          "indexed": true,
          "internalType": "uint256",
          "name": "editionId",
          "type": "uint256"
        },
        {
          "indexed": false,
          "internalType": "address",
          "name": "fundingRecipient",
          "type": "address"
        },
        {
          "indexed": false,
          "internalType": "uint256",
          "name": "price",
          "type": "uint256"
        },
        {
          "indexed": false,
          "internalType": "uint32",
          "name": "quantity",
          "type": "uint32"
        },
        {
          "indexed": false,
          "internalType": "uint32",
          "name": "royaltyBPS",
          "type": "uint32"
        },
        {
          "indexed": false,
          "internalType": "uint32",
          "name": "startTime",
          "type": "uint32"
        },
        {
          "indexed": false,
          "internalType": "uint32",
          "name": "endTime",
          "type": "uint32"
        }
      ],
      "name": "EditionCreated",
      "type": "event"
    },
    {
      "anonymous": false,
      "inputs": [
        {
          "indexed": true,
          "internalType": "uint256",
          "name": "editionId",
          "type": "uint256"
        },
        {
          "indexed": false,
          "internalType": "address",
          "name": "fundingRecipient",
          "type": "address"
        },
        {
          "indexed": false,
          "internalType": "uint256",
          "name": "price",
          "type": "uint256"
        },
        {
          "indexed": false,
          "internalType": "uint32",
          "name": "quantity",
          "type": "uint32"
        },
        {
          "indexed": false,
          "internalType": "uint32",
          "name": "royaltyBPS",
          "type": "uint32"
        },
        {
          "indexed": false,
          "internalType": "uint32",
          "name": "startTime",
          "type": "uint32"
        },
        {
          "indexed": false,
          "internalType": "uint32",
          "name": "endTime",
          "type": "uint32"
        },
        {
          "indexed": false,
          "internalType": "uint32",
          "name": "presaleQuantity",
          "type": "uint32"
        },
        {
          "indexed": false,
          "internalType": "address",
          "name": "signerAddress",
          "type": "address"
        }
      ],
      "name": "EditionCreated",
      "type": "event"
    },
    {
      "anonymous": false,
      "inputs": [
        {
          "indexed": true,
          "internalType": "uint256",
          "name": "editionId",
          "type": "uint256"
        },
        {
          "indexed": true,
          "internalType": "uint256",
          "name": "tokenId",
          "type": "uint256"
        },
        {
          "indexed": false,
          "internalType": "uint32",
          "name": "numSold",
          "type": "uint32"
        },
        {
          "indexed": true,
          "internalType": "address",
          "name": "buyer",
          "type": "address"
        }
      ],
      "name": "EditionPurchased",
      "type": "event"
    },
    {
      "anonymous": false,
      "inputs": [
        {
          "indexed": true,
          "internalType": "address",
          "name": "previousOwner",
          "type": "address"
        },
        {
          "indexed": true,
          "internalType": "address",
          "name": "newOwner",
          "type": "address"
        }
      ],
      "name": "OwnershipTransferred",
      "type": "event"
    },
    {
      "anonymous": false,
      "inputs": [
        {
          "indexed": true,
          "internalType": "address",
          "name": "from",
          "type": "address"
        },
        {
          "indexed": true,
          "internalType": "address",
          "name": "to",
          "type": "address"
        },
        {
          "indexed": true,
          "internalType": "uint256",
          "name": "tokenId",
          "type": "uint256"
        }
      ],
      "name": "Transfer",
      "type": "event"
    },
    {
      "inputs": [
        {
          "internalType": "address",
          "name": "to",
          "type": "address"
        },
        {
          "internalType": "uint256",
          "name": "tokenId",
          "type": "uint256"
        }
      ],
      "name": "approve",
      "outputs": [],
      "stateMutability": "nonpayable",
      "type": "function"
    },
    {
      "inputs": [
        {
          "internalType": "address",
          "name": "owner",
          "type": "address"
        }
      ],
      "name": "balanceOf",
      "outputs": [
        {
          "internalType": "uint256",
          "name": "",
          "type": "uint256"
        }
      ],
      "stateMutability": "view",
      "type": "function"
    },
    {
      "inputs": [
        {
          "internalType": "uint256",
          "name": "_editionId",
          "type": "uint256"
        }
      ],
      "name": "buyEdition",
      "outputs": [],
      "stateMutability": "payable",
      "type": "function"
    },
    {
      "inputs": [],
      "name": "contractURI",
      "outputs": [
        {
          "internalType": "string",
          "name": "",
          "type": "string"
        }
      ],
      "stateMutability": "view",
      "type": "function"
    },
    {
      "inputs": [
        {
          "internalType": "address payable",
          "name": "_fundingRecipient",
          "type": "address"
        },
        {
          "internalType": "uint256",
          "name": "_price",
          "type": "uint256"
        },
        {
          "internalType": "uint32",
          "name": "_quantity",
          "type": "uint32"
        },
        {
          "internalType": "uint32",
          "name": "_royaltyBPS",
          "type": "uint32"
        },
        {
          "internalType": "uint32",
          "name": "_startTime",
          "type": "uint32"
        },
        {
          "internalType": "uint32",
          "name": "_endTime",
          "type": "uint32"
        }
      ],
      "name": "createEdition",
      "outputs": [],
      "stateMutability": "nonpayable",
      "type": "function"
    },
    {
      "inputs": [
        {
          "internalType": "uint256",
          "name": "",
          "type": "uint256"
        }
      ],
      "name": "depositedForEdition",
      "outputs": [
        {
          "internalType": "uint256",
          "name": "",
          "type": "uint256"
        }
      ],
      "stateMutability": "view",
      "type": "function"
    },
    {
      "inputs": [
        {
          "internalType": "uint256",
          "name": "",
          "type": "uint256"
        }
      ],
      "name": "editions",
      "outputs": [
        {
          "internalType": "address payable",
          "name": "fundingRecipient",
          "type": "address"
        },
        {
          "internalType": "uint256",
          "name": "price",
          "type": "uint256"
        },
        {
          "internalType": "uint32",
          "name": "numSold",
          "type": "uint32"
        },
        {
          "internalType": "uint32",
          "name": "quantity",
          "type": "uint32"
        },
        {
          "internalType": "uint32",
          "name": "royaltyBPS",
          "type": "uint32"
        },
        {
          "internalType": "uint32",
          "name": "startTime",
          "type": "uint32"
        },
        {
          "internalType": "uint32",
          "name": "endTime",
          "type": "uint32"
        }
      ],
      "stateMutability": "view",
      "type": "function"
    },
    {
      "inputs": [
        {
          "internalType": "uint256",
          "name": "tokenId",
          "type": "uint256"
        }
      ],
      "name": "getApproved",
      "outputs": [
        {
          "internalType": "address",
          "name": "",
          "type": "address"
        }
      ],
      "stateMutability": "view",
      "type": "function"
    },
    {
      "inputs": [
        {
          "internalType": "uint256",
          "name": "_editionId",
          "type": "uint256"
        }
      ],
      "name": "getOwnersOfEdition",
      "outputs": [
        {
          "internalType": "address[]",
          "name": "",
          "type": "address[]"
        }
      ],
      "stateMutability": "view",
      "type": "function"
    },
    {
      "inputs": [
        {
          "internalType": "uint256",
          "name": "_editionId",
          "type": "uint256"
        }
      ],
      "name": "getTokenIdsOfEdition",
      "outputs": [
        {
          "internalType": "uint256[]",
          "name": "",
          "type": "uint256[]"
        }
      ],
      "stateMutability": "view",
      "type": "function"
    },
    {
      "inputs": [
        {
          "internalType": "address",
          "name": "_owner",
          "type": "address"
        },
        {
          "internalType": "uint256",
          "name": "_artistId",
          "type": "uint256"
        },
        {
          "internalType": "string",
          "name": "_name",
          "type": "string"
        },
        {
          "internalType": "string",
          "name": "_symbol",
          "type": "string"
        },
        {
          "internalType": "string",
          "name": "_baseURI",
          "type": "string"
        }
      ],
      "name": "initialize",
      "outputs": [],
      "stateMutability": "nonpayable",
      "type": "function"
    },
    {
      "inputs": [
        {
          "internalType": "address",
          "name": "owner",
          "type": "address"
        },
        {
          "internalType": "address",
          "name": "operator",
          "type": "address"
        }
      ],
      "name": "isApprovedForAll",
      "outputs": [
        {
          "internalType": "bool",
          "name": "",
          "type": "bool"
        }
      ],
      "stateMutability": "view",
      "type": "function"
    },
    {
      "inputs": [],
      "name": "name",
      "outputs": [
        {
          "internalType": "string",
          "name": "",
          "type": "string"
        }
      ],
      "stateMutability": "view",
      "type": "function"
    },
    {
      "inputs": [],
      "name": "owner",
      "outputs": [
        {
          "internalType": "address",
          "name": "",
          "type": "address"
        }
      ],
      "stateMutability": "view",
      "type": "function"
    },
    {
      "inputs": [
        {
          "internalType": "uint256",
          "name": "tokenId",
          "type": "uint256"
        }
      ],
      "name": "ownerOf",
      "outputs": [
        {
          "internalType": "address",
          "name": "",
          "type": "address"
        }
      ],
      "stateMutability": "view",
      "type": "function"
    },
    {
      "inputs": [],
      "name": "renounceOwnership",
      "outputs": [],
      "stateMutability": "nonpayable",
      "type": "function"
    },
    {
      "inputs": [
        {
          "internalType": "uint256",
          "name": "_editionId",
          "type": "uint256"
        },
        {
          "internalType": "uint256",
          "name": "_salePrice",
          "type": "uint256"
        }
      ],
      "name": "royaltyInfo",
      "outputs": [
        {
          "internalType": "address",
          "name": "fundingRecipient",
          "type": "address"
        },
        {
          "internalType": "uint256",
          "name": "royaltyAmount",
          "type": "uint256"
        }
      ],
      "stateMutability": "view",
      "type": "function"
    },
    {
      "inputs": [
        {
          "internalType": "address",
          "name": "from",
          "type": "address"
        },
        {
          "internalType": "address",
          "name": "to",
          "type": "address"
        },
        {
          "internalType": "uint256",
          "name": "tokenId",
          "type": "uint256"
        }
      ],
      "name": "safeTransferFrom",
      "outputs": [],
      "stateMutability": "nonpayable",
      "type": "function"
    },
    {
      "inputs": [
        {
          "internalType": "address",
          "name": "from",
          "type": "address"
        },
        {
          "internalType": "address",
          "name": "to",
          "type": "address"
        },
        {
          "internalType": "uint256",
          "name": "tokenId",
          "type": "uint256"
        },
        {
          "internalType": "bytes",
          "name": "_data",
          "type": "bytes"
        }
      ],
      "name": "safeTransferFrom",
      "outputs": [],
      "stateMutability": "nonpayable",
      "type": "function"
    },
    {
      "inputs": [
        {
          "internalType": "address",
          "name": "operator",
          "type": "address"
        },
        {
          "internalType": "bool",
          "name": "approved",
          "type": "bool"
        }
      ],
      "name": "setApprovalForAll",
      "outputs": [],
      "stateMutability": "nonpayable",
      "type": "function"
    },
    {
      "inputs": [
        {
          "internalType": "uint256",
          "name": "_editionId",
          "type": "uint256"
        },
        {
          "internalType": "uint32",
          "name": "_endTime",
          "type": "uint32"
        }
      ],
      "name": "setEndTime",
      "outputs": [],
      "stateMutability": "nonpayable",
      "type": "function"
    },
    {
      "inputs": [
        {
          "internalType": "uint256",
          "name": "_editionId",
          "type": "uint256"
        },
        {
          "internalType": "uint32",
          "name": "_startTime",
          "type": "uint32"
        }
      ],
      "name": "setStartTime",
      "outputs": [],
      "stateMutability": "nonpayable",
      "type": "function"
    },
    {
      "inputs": [
        {
          "internalType": "bytes4",
          "name": "_interfaceId",
          "type": "bytes4"
        }
      ],
      "name": "supportsInterface",
      "outputs": [
        {
          "internalType": "bool",
          "name": "",
          "type": "bool"
        }
      ],
      "stateMutability": "view",
      "type": "function"
    },
    {
      "inputs": [],
      "name": "symbol",
      "outputs": [
        {
          "internalType": "string",
          "name": "",
          "type": "string"
        }
      ],
      "stateMutability": "view",
      "type": "function"
    },
    {
      "inputs": [
        {
          "internalType": "uint256",
          "name": "",
          "type": "uint256"
        }
      ],
      "name": "tokenToEdition",
      "outputs": [
        {
          "internalType": "uint256",
          "name": "",
          "type": "uint256"
        }
      ],
      "stateMutability": "view",
      "type": "function"
    },
    {
      "inputs": [
        {
          "internalType": "uint256",
          "name": "_tokenId",
          "type": "uint256"
        }
      ],
      "name": "tokenURI",
      "outputs": [
        {
          "internalType": "string",
          "name": "",
          "type": "string"
        }
      ],
      "stateMutability": "view",
      "type": "function"
    },
    {
      "inputs": [],
      "name": "totalSupply",
      "outputs": [
        {
          "internalType": "uint256",
          "name": "",
          "type": "uint256"
        }
      ],
      "stateMutability": "view",
      "type": "function"
    },
    {
      "inputs": [
        {
          "internalType": "address",
          "name": "from",
          "type": "address"
        },
        {
          "internalType": "address",
          "name": "to",
          "type": "address"
        },
        {
          "internalType": "uint256",
          "name": "tokenId",
          "type": "uint256"
        }
      ],
      "name": "transferFrom",
      "outputs": [],
      "stateMutability": "nonpayable",
      "type": "function"
    },
    {
      "inputs": [
        {
          "internalType": "address",
          "name": "newOwner",
          "type": "address"
        }
      ],
      "name": "transferOwnership",
      "outputs": [],
      "stateMutability": "nonpayable",
      "type": "function"
    },
    {
      "inputs": [
        {
          "internalType": "uint256",
          "name": "_editionId",
          "type": "uint256"
        }
      ],
      "name": "withdrawFunds",
      "outputs": [],
      "stateMutability": "nonpayable",
      "type": "function"
    },
    {
      "inputs": [
        {
          "internalType": "uint256",
          "name": "",
          "type": "uint256"
        }
      ],
      "name": "withdrawnForEdition",
      "outputs": [
        {
          "internalType": "uint256",
          "name": "",
          "type": "uint256"
        }
      ],
      "stateMutability": "view",
      "type": "function"
    }
  ],
  "bytecode": "0x608060405234801561001057600080fd5b50612a71806100206000396000f3fe6080604052600436106101d85760003560e01c8063715018a611610102578063bd8616ec11610095578063e8a3d48511610064578063e8a3d4851461064f578063e985e9c514610664578063f2fde38b146106ad578063fbab9e04146106cd57600080fd5b8063bd8616ec146105c2578063c87b56dd146105d5578063d3bb0528146105f5578063e1a3d5731461062257600080fd5b8063a22cb465116100d1578063a22cb46514610542578063abfc83a014610562578063b88d4fde14610582578063bb314ca1146105a257600080fd5b8063715018a6146104cd57806374e79189146104e25780638da5cb5b1461050f57806395d89b411461052d57600080fd5b806323b872dd1161017a57806342842e0e1161014957806342842e0e14610440578063602787ed146104605780636352211e1461048d57806370a08231146104ad57600080fd5b806323b872dd146102fe578063279c806e1461031e5780632a55205a146103e15780633fafef291461042057600080fd5b8063095ea7b3116101b6578063095ea7b31461026c57806313dd29601461028e578063155dd5ee146102bb57806318160ddd146102db57600080fd5b806301ffc9a7146101dd57806306fdde0314610212578063081812fc14610234575b600080fd5b3480156101e957600080fd5b506101fd6101f8366004612496565b6106ed565b60405190151581526020015b60405180910390f35b34801561021e57600080fd5b50610227610718565b6040516102099190612766565b34801561024057600080fd5b5061025461024f3660046124d0565b6107aa565b6040516001600160a01b039091168152602001610209565b34801561027857600080fd5b5061028c6102873660046123c5565b610844565b005b34801561029a57600080fd5b506102ae6102a93660046124d0565b61095a565b60405161020991906126e1565b3480156102c757600080fd5b5061028c6102d63660046124d0565b610a3b565b3480156102e757600080fd5b506102f0610a9b565b604051908152602001610209565b34801561030a57600080fd5b5061028c6103193660046122d1565b610ab7565b34801561032a57600080fd5b506103956103393660046124d0565b60cc602052600090815260409020805460018201546002909201546001600160a01b03909116919063ffffffff808216916401000000008104821691600160401b8204811691600160601b8104821691600160801b9091041687565b604080516001600160a01b039098168852602088019690965263ffffffff94851695870195909552918316606086015282166080850152811660a08401521660c082015260e001610209565b3480156103ed57600080fd5b506104016103fc3660046124e9565b610ae8565b604080516001600160a01b039093168352602083019190915201610209565b34801561042c57600080fd5b5061028c61043b366004612229565b610bb1565b34801561044c57600080fd5b5061028c61045b3660046122d1565b610d9f565b34801561046c57600080fd5b506102f061047b3660046124d0565b60cd6020526000908152604090205481565b34801561049957600080fd5b506102546104a83660046124d0565b610dba565b3480156104b957600080fd5b506102f06104c836600461220c565b610e31565b3480156104d957600080fd5b5061028c610eb8565b3480156104ee57600080fd5b506105026104fd3660046124d0565b610eee565b604051610209919061272e565b34801561051b57600080fd5b506097546001600160a01b0316610254565b34801561053957600080fd5b50610227610fb1565b34801561054e57600080fd5b5061028c61055d366004612392565b610fc0565b34801561056e57600080fd5b5061028c61057d3660046123f1565b610fcb565b34801561058e57600080fd5b5061028c61059d366004612312565b6110ff565b3480156105ae57600080fd5b5061028c6105bd36600461250b565b611137565b61028c6105d03660046124d0565b611197565b3480156105e157600080fd5b506102276105f03660046124d0565b6114b2565b34801561060157600080fd5b506102f06106103660046124d0565b60cf6020526000908152604090205481565b34801561062e57600080fd5b506102f061063d3660046124d0565b60ce6020526000908152604090205481565b34801561065b57600080fd5b5061022761157d565b34801561067057600080fd5b506101fd61067f366004612298565b6001600160a01b039182166000908152606a6020908152604080832093909416825291909152205460ff1690565b3480156106b957600080fd5b5061028c6106c836600461220c565b6115a5565b3480156106d957600080fd5b5061028c6106e836600461250b565b61163d565b600063152a902d60e11b6001600160e01b03198316148061071257506107128261169d565b92915050565b6060606580546107279061292a565b80601f01602080910402602001604051908101604052809291908181526020018280546107539061292a565b80156107a05780601f10610775576101008083540402835291602001916107a0565b820191906000526020600020905b81548152906001019060200180831161078357829003601f168201915b5050505050905090565b6000818152606760205260408120546001600160a01b03166108285760405162461bcd60e51b815260206004820152602c60248201527f4552433732313a20617070726f76656420717565727920666f72206e6f6e657860448201526b34b9ba32b73a103a37b5b2b760a11b60648201526084015b60405180910390fd5b506000908152606960205260409020546001600160a01b031690565b600061084f82610dba565b9050806001600160a01b0316836001600160a01b031614156108bd5760405162461bcd60e51b815260206004820152602160248201527f4552433732313a20617070726f76616c20746f2063757272656e74206f776e656044820152603960f91b606482015260840161081f565b336001600160a01b03821614806108d957506108d9813361067f565b61094b5760405162461bcd60e51b815260206004820152603860248201527f4552433732313a20617070726f76652063616c6c6572206973206e6f74206f7760448201527f6e6572206e6f7220617070726f76656420666f7220616c6c0000000000000000606482015260840161081f565b61095583836116ed565b505050565b600081815260cc60205260408120600201546060919063ffffffff1667ffffffffffffffff81111561098e5761098e6129fa565b6040519080825280602002602001820160405280156109b7578160200160208202803683370190505b509050600060015b60ca54811015610a3257600081815260cd6020526040902054851415610a20576109e881610dba565b8383815181106109fa576109fa6129e4565b6001600160a01b039092166020928302919091019091015281610a1c81612965565b9250505b80610a2a81612965565b9150506109bf565b50909392505050565b600081815260cf602090815260408083205460ce909252822054610a5f91906128e7565b600083815260ce602090815260408083205460cf83528184205560cc909152902054909150610a97906001600160a01b03168261175b565b5050565b60006001610aa860ca5490565b610ab291906128e7565b905090565b610ac13382611868565b610add5760405162461bcd60e51b815260040161081f90612800565b61095583838361195f565b600082815260cc60209081526040808320815160e08101835281546001600160a01b031680825260018301549482019490945260029091015463ffffffff80821693830193909352640100000000810483166060830152600160401b810483166080830152600160601b8104831660a0830152600160801b900490911660c08201528291610b7c5751915060009050610baa565b6080810151815163ffffffff90911690612710610b9983886128c8565b610ba391906128b4565b9350935050505b9250929050565b6097546001600160a01b03163314610bdb5760405162461bcd60e51b815260040161081f906127cb565b6040518060e00160405280876001600160a01b03168152602001868152602001600063ffffffff1681526020018563ffffffff1681526020018463ffffffff1681526020018363ffffffff1681526020018263ffffffff1681525060cc6000610c4360cb5490565b81526020808201929092526040908101600020835181546001600160a01b039091166001600160a01b0319909116178155918301516001830155820151600290910180546060840151608085015160a086015160c09096015163ffffffff908116600160801b0263ffffffff60801b19978216600160601b0263ffffffff60601b19938316600160401b02939093166fffffffffffffffff0000000000000000199483166401000000000267ffffffffffffffff1990961692909716919091179390931791909116939093179290921792909216179055610d2360cb5490565b604080516001600160a01b03891681526020810188905263ffffffff8781168284015286811660608301528581166080830152841660a082015290517fb3131d7d301f8caeb40981cffc627b1fdf324b5e4a23845b61c1a6ad2a25f3859181900360c00190a2610d9760cb80546001019055565b505050505050565b610955838383604051806020016040528060008152506110ff565b6000818152606760205260408120546001600160a01b0316806107125760405162461bcd60e51b815260206004820152602960248201527f4552433732313a206f776e657220717565727920666f72206e6f6e657869737460448201526832b73a103a37b5b2b760b91b606482015260840161081f565b60006001600160a01b038216610e9c5760405162461bcd60e51b815260206004820152602a60248201527f4552433732313a2062616c616e636520717565727920666f7220746865207a65604482015269726f206164647265737360b01b606482015260840161081f565b506001600160a01b031660009081526068602052604090205490565b6097546001600160a01b03163314610ee25760405162461bcd60e51b815260040161081f906127cb565b610eec6000611aff565b565b600081815260cc60205260408120600201546060919063ffffffff1667ffffffffffffffff811115610f2257610f226129fa565b604051908082528060200260200182016040528015610f4b578160200160208202803683370190505b509050600060015b60ca54811015610a3257600081815260cd6020526040902054851415610f9f5780838381518110610f8657610f866129e4565b602090810291909101015281610f9b81612965565b9250505b80610fa981612965565b915050610f53565b6060606680546107279061292a565b610a97338383611b51565b600054610100900460ff16610fe65760005460ff1615610fea565b303b155b61104d5760405162461bcd60e51b815260206004820152602e60248201527f496e697469616c697a61626c653a20636f6e747261637420697320616c72656160448201526d191e481a5b9a5d1a585b1a5e995960921b606482015260840161081f565b600054610100900460ff1615801561106f576000805461ffff19166101011790555b6110798484611c20565b611081611c61565b61108a866115a5565b8161109486611c98565b6040516020016110a59291906125fd565b60405160208183030381529060405260c990805190602001906110c99291906120bd565b506110d860ca80546001019055565b6110e660cb80546001019055565b8015610d97576000805461ff0019169055505050505050565b6111093383611868565b6111255760405162461bcd60e51b815260040161081f90612800565b61113184848484611d96565b50505050565b6097546001600160a01b031633146111615760405162461bcd60e51b815260040161081f906127cb565b600091825260cc6020526040909120600201805463ffffffff909216600160801b0263ffffffff60801b19909216919091179055565b600081815260cc6020526040902060020154640100000000900463ffffffff166111fc5760405162461bcd60e51b815260206004820152601660248201527511591a5d1a5bdb88191bd95cc81b9bdd08195e1a5cdd60521b604482015260640161081f565b600081815260cc602052604090206002015463ffffffff640100000000820481169116106112765760405162461bcd60e51b815260206004820152602160248201527f546869732065646974696f6e20697320616c726561647920736f6c64206f75746044820152601760f91b606482015260840161081f565b600081815260cc60205260409020600101543410156112e95760405162461bcd60e51b815260206004820152602960248201527f4d7573742073656e6420656e6f75676820746f207075726368617365207468656044820152681032b234ba34b7b71760b91b606482015260840161081f565b600081815260cc602052604090206002015442600160601b90910463ffffffff16106113505760405162461bcd60e51b8152602060048201526016602482015275105d58dd1a5bdb881a185cdb89dd081cdd185c9d195960521b604482015260640161081f565b600081815260cc602052604090206002015442600160801b90910463ffffffff16116113b25760405162461bcd60e51b8152602060048201526011602482015270105d58dd1a5bdb881a185cc8195b991959607a1b604482015260640161081f565b6113c4336113bf60ca5490565b611dc9565b600081815260ce6020526040812080543492906113e290849061289c565b9091555050600081815260cc60205260408120600201805463ffffffff169161140a83612980565b91906101000a81548163ffffffff021916908363ffffffff160217905550508060cd600061143760ca5490565b81526020810191909152604001600020553361145260ca5490565b600083815260cc602090815260409182902060020154915163ffffffff909216825284917fe38cb07a52e5d88a83de7c9d29c2841118103e462d20f8c526b35872f9977785910160405180910390a46114af60ca80546001019055565b50565b6000818152606760205260409020546060906001600160a01b03166115315760405162461bcd60e51b815260206004820152602f60248201527f4552433732314d657461646174613a2055524920717565727920666f72206e6f60448201526e3732bc34b9ba32b73a103a37b5b2b760891b606482015260840161081f565b600082815260cd602052604090205460c99061154c90611c98565b61155584611c98565b60405160200161156793929190612638565b6040516020818303038152906040529050919050565b606060c9604051602001611591919061267e565b604051602081830303815290604052905090565b6097546001600160a01b031633146115cf5760405162461bcd60e51b815260040161081f906127cb565b6001600160a01b0381166116345760405162461bcd60e51b815260206004820152602660248201527f4f776e61626c653a206e6577206f776e657220697320746865207a65726f206160448201526564647265737360d01b606482015260840161081f565b6114af81611aff565b6097546001600160a01b031633146116675760405162461bcd60e51b815260040161081f906127cb565b600091825260cc6020526040909120600201805463ffffffff909216600160601b0263ffffffff60601b19909216919091179055565b60006001600160e01b031982166380ac58cd60e01b14806116ce57506001600160e01b03198216635b5e139f60e01b145b8061071257506301ffc9a760e01b6001600160e01b0319831614610712565b600081815260696020526040902080546001600160a01b0319166001600160a01b038416908117909155819061172282610dba565b6001600160a01b03167f8c5be1e5ebec7d5bd14f71427d1e84f3dd0314c0f7b2291e5b200ac8c7c3b92560405160405180910390a45050565b804710156117ab5760405162461bcd60e51b815260206004820152601d60248201527f496e73756666696369656e742062616c616e636520666f722073656e64000000604482015260640161081f565b6000826001600160a01b03168260405160006040518083038185875af1925050503d80600081146117f8576040519150601f19603f3d011682016040523d82523d6000602084013e6117fd565b606091505b50509050806109555760405162461bcd60e51b815260206004820152603160248201527f556e61626c6520746f2073656e642076616c75653a20726563697069656e74206044820152701b585e481a185d99481c995d995c9d1959607a1b606482015260840161081f565b6000818152606760205260408120546001600160a01b03166118e15760405162461bcd60e51b815260206004820152602c60248201527f4552433732313a206f70657261746f7220717565727920666f72206e6f6e657860448201526b34b9ba32b73a103a37b5b2b760a11b606482015260840161081f565b60006118ec83610dba565b9050806001600160a01b0316846001600160a01b031614806119275750836001600160a01b031661191c846107aa565b6001600160a01b0316145b8061195757506001600160a01b038082166000908152606a602090815260408083209388168352929052205460ff165b949350505050565b826001600160a01b031661197282610dba565b6001600160a01b0316146119da5760405162461bcd60e51b815260206004820152602960248201527f4552433732313a207472616e73666572206f6620746f6b656e2074686174206960448201526839903737ba1037bbb760b91b606482015260840161081f565b6001600160a01b038216611a3c5760405162461bcd60e51b8152602060048201526024808201527f4552433732313a207472616e7366657220746f20746865207a65726f206164646044820152637265737360e01b606482015260840161081f565b611a476000826116ed565b6001600160a01b0383166000908152606860205260408120805460019290611a709084906128e7565b90915550506001600160a01b0382166000908152606860205260408120805460019290611a9e90849061289c565b909155505060008181526067602052604080822080546001600160a01b0319166001600160a01b0386811691821790925591518493918716917fddf252ad1be2c89b69c2b068fc378daa952ba7f163c4a11628f55a4df523b3ef91a4505050565b609780546001600160a01b038381166001600160a01b0319831681179093556040519116919082907f8be0079c531659141344cd1fd0a4f28419497f9722a3daafe3b4186f6b6457e090600090a35050565b816001600160a01b0316836001600160a01b03161415611bb35760405162461bcd60e51b815260206004820152601960248201527f4552433732313a20617070726f766520746f2063616c6c657200000000000000604482015260640161081f565b6001600160a01b038381166000818152606a6020908152604080832094871680845294825291829020805460ff191686151590811790915591519182527f17307eab39ab6107e8899845ad3d59bd9653f200f220920489ca2b5937696c31910160405180910390a3505050565b600054610100900460ff16611c475760405162461bcd60e51b815260040161081f90612851565b611c4f611f0b565b611c57611f0b565b610a978282611f32565b600054610100900460ff16611c885760405162461bcd60e51b815260040161081f90612851565b611c90611f0b565b610eec611f80565b606081611cbc5750506040805180820190915260018152600360fc1b602082015290565b8160005b8115611ce65780611cd081612965565b9150611cdf9050600a836128b4565b9150611cc0565b60008167ffffffffffffffff811115611d0157611d016129fa565b6040519080825280601f01601f191660200182016040528015611d2b576020820181803683370190505b5090505b841561195757611d406001836128e7565b9150611d4d600a866129a4565b611d5890603061289c565b60f81b818381518110611d6d57611d6d6129e4565b60200101906001600160f81b031916908160001a905350611d8f600a866128b4565b9450611d2f565b611da184848461195f565b611dad84848484611fb0565b6111315760405162461bcd60e51b815260040161081f90612779565b6001600160a01b038216611e1f5760405162461bcd60e51b815260206004820181905260248201527f4552433732313a206d696e7420746f20746865207a65726f2061646472657373604482015260640161081f565b6000818152606760205260409020546001600160a01b031615611e845760405162461bcd60e51b815260206004820152601c60248201527f4552433732313a20746f6b656e20616c7265616479206d696e74656400000000604482015260640161081f565b6001600160a01b0382166000908152606860205260408120805460019290611ead90849061289c565b909155505060008181526067602052604080822080546001600160a01b0319166001600160a01b03861690811790915590518392907fddf252ad1be2c89b69c2b068fc378daa952ba7f163c4a11628f55a4df523b3ef908290a45050565b600054610100900460ff16610eec5760405162461bcd60e51b815260040161081f90612851565b600054610100900460ff16611f595760405162461bcd60e51b815260040161081f90612851565b8151611f6c9060659060208501906120bd565b5080516109559060669060208401906120bd565b600054610100900460ff16611fa75760405162461bcd60e51b815260040161081f90612851565b610eec33611aff565b60006001600160a01b0384163b156120b257604051630a85bd0160e11b81526001600160a01b0385169063150b7a0290611ff49033908990889088906004016126a4565b602060405180830381600087803b15801561200e57600080fd5b505af192505050801561203e575060408051601f3d908101601f1916820190925261203b918101906124b3565b60015b612098573d80801561206c576040519150601f19603f3d011682016040523d82523d6000602084013e612071565b606091505b5080516120905760405162461bcd60e51b815260040161081f90612779565b805181602001fd5b6001600160e01b031916630a85bd0160e11b149050611957565b506001949350505050565b8280546120c99061292a565b90600052602060002090601f0160209004810192826120eb5760008555612131565b82601f1061210457805160ff1916838001178555612131565b82800160010185558215612131579182015b82811115612131578251825591602001919060010190612116565b5061213d929150612141565b5090565b5b8082111561213d5760008155600101612142565b600067ffffffffffffffff80841115612171576121716129fa565b604051601f8501601f19908116603f01168101908282118183101715612199576121996129fa565b816040528093508581528686860111156121b257600080fd5b858560208301376000602087830101525050509392505050565b600082601f8301126121dd57600080fd5b6121ec83833560208501612156565b9392505050565b803563ffffffff8116811461220757600080fd5b919050565b60006020828403121561221e57600080fd5b81356121ec81612a10565b60008060008060008060c0878903121561224257600080fd5b863561224d81612a10565b955060208701359450612262604088016121f3565b9350612270606088016121f3565b925061227e608088016121f3565b915061228c60a088016121f3565b90509295509295509295565b600080604083850312156122ab57600080fd5b82356122b681612a10565b915060208301356122c681612a10565b809150509250929050565b6000806000606084860312156122e657600080fd5b83356122f181612a10565b9250602084013561230181612a10565b929592945050506040919091013590565b6000806000806080858703121561232857600080fd5b843561233381612a10565b9350602085013561234381612a10565b925060408501359150606085013567ffffffffffffffff81111561236657600080fd5b8501601f8101871361237757600080fd5b61238687823560208401612156565b91505092959194509250565b600080604083850312156123a557600080fd5b82356123b081612a10565b9150602083013580151581146122c657600080fd5b600080604083850312156123d857600080fd5b82356123e381612a10565b946020939093013593505050565b600080600080600060a0868803121561240957600080fd5b853561241481612a10565b945060208601359350604086013567ffffffffffffffff8082111561243857600080fd5b61244489838a016121cc565b9450606088013591508082111561245a57600080fd5b61246689838a016121cc565b9350608088013591508082111561247c57600080fd5b50612489888289016121cc565b9150509295509295909350565b6000602082840312156124a857600080fd5b81356121ec81612a25565b6000602082840312156124c557600080fd5b81516121ec81612a25565b6000602082840312156124e257600080fd5b5035919050565b600080604083850312156124fc57600080fd5b50508035926020909101359150565b6000806040838503121561251e57600080fd5b8235915061252e602084016121f3565b90509250929050565b6000815180845261254f8160208601602086016128fe565b601f01601f19169290920160200192915050565b8054600090600181811c908083168061257d57607f831692505b602080841082141561259f57634e487b7160e01b600052602260045260246000fd5b8180156125b357600181146125c4576125f1565b60ff198616895284890196506125f1565b60008881526020902060005b868110156125e95781548b8201529085019083016125d0565b505084890196505b50505050505092915050565b6000835161260f8184602088016128fe565b8351908301906126238183602088016128fe565b602f60f81b9101908152600101949350505050565b60006126448286612563565b84516126548183602089016128fe565b602f60f81b910190815283516126718160018401602088016128fe565b0160010195945050505050565b600061268a8284612563565b691cdd1bdc99599c9bdb9d60b21b8152600a019392505050565b6001600160a01b03858116825284166020820152604081018390526080606082018190526000906126d790830184612537565b9695505050505050565b6020808252825182820181905260009190848201906040850190845b818110156127225783516001600160a01b0316835292840192918401916001016126fd565b50909695505050505050565b6020808252825182820181905260009190848201906040850190845b818110156127225783518352928401929184019160010161274a565b6020815260006121ec6020830184612537565b60208082526032908201527f4552433732313a207472616e7366657220746f206e6f6e20455243373231526560408201527131b2b4bb32b91034b6b83632b6b2b73a32b960711b606082015260800190565b6020808252818101527f4f776e61626c653a2063616c6c6572206973206e6f7420746865206f776e6572604082015260600190565b60208082526031908201527f4552433732313a207472616e736665722063616c6c6572206973206e6f74206f6040820152701ddb995c881b9bdc88185c1c1c9bdd9959607a1b606082015260800190565b6020808252602b908201527f496e697469616c697a61626c653a20636f6e7472616374206973206e6f74206960408201526a6e697469616c697a696e6760a81b606082015260800190565b600082198211156128af576128af6129b8565b500190565b6000826128c3576128c36129ce565b500490565b60008160001904831182151516156128e2576128e26129b8565b500290565b6000828210156128f9576128f96129b8565b500390565b60005b83811015612919578181015183820152602001612901565b838111156111315750506000910152565b600181811c9082168061293e57607f821691505b6020821081141561295f57634e487b7160e01b600052602260045260246000fd5b50919050565b6000600019821415612979576129796129b8565b5060010190565b600063ffffffff8083168181141561299a5761299a6129b8565b6001019392505050565b6000826129b3576129b36129ce565b500690565b634e487b7160e01b600052601160045260246000fd5b634e487b7160e01b600052601260045260246000fd5b634e487b7160e01b600052603260045260246000fd5b634e487b7160e01b600052604160045260246000fd5b6001600160a01b03811681146114af57600080fd5b6001600160e01b0319811681146114af57600080fdfea2646970667358221220688d6bf43e5d68af458be79674990456921e4379f43e1ed568307127798e55d664736f6c63430008070033",
  "linkReferences": {},
  "deployedLinkReferences": {}
}